:100000000C9409010C9426010C9426010C942601F1
:100010000C9426010C9426010C9426010C942601C4
:100020000C9426010C9426010C9426010C942601B4
:100030000C9426010C9426010C9426010C942601A4
:100040000C9407060C9426010C9426010C942601AE
:100050000C9426010C9426010C9426010C94260184
:100060000C9426010C94260187069F06A206A5067D
:10007000A806AB06AE06B106B406B706BA06BD06BC
:10008000C006C3065265696E696369616E646F2E4E
:100090002E2E2E2020000046696D20646F20707285
:1000A0006F636573736F2020202020200000456D52
:1000B0002070726F636573736F2E2E2E2E2020209A
:1000C000000042656D2076696E646F202121212039
:1000D00020202020202020202020200000457363A5
:1000E0006F6C68612054616D616E686F3A202020EA
:1000F0002020202020202020200000436F706F202F
:1001000070657175656E6F202020202020202020D2
:1001100020200000436F706F206D6564696F2020A0
:100120002020202020202000004573636F6C686130
:100130002061637563617220202020202020200030
:10014000004573636F6C68612063617075636369F8
:100150006E6F202020202020202000004573636F38
:100160006C686120636166652020202020202020AB
:100170002000004573636F6C6861206C656974656D
:1001800020202020202020202000006E616F2020D1
:10019000202020202020000073696D2020202020B6
:1001A00020200000726574697265206F20636F7093
:1001B0006F20200000496E73697261206F20636FA9
:1001C000706F20200000436F706F20726574697239
:1001D00061646F20200000436F706F206465746558
:1001E000637461646F202000004163756361722055
:1001F000200000436170756363696E6F202000000A
:1002000043616665202000004C656974652020000C
:10021000000011241FBECFEFD8E0DEBFCDBF11E03C
:10022000A0E0B1E0EAEBFDE002C005900D92AC3039
:10023000B107D9F721E0ACE0B1E001C01D92A431D3
:10024000B207E1F70E9463060C94DB060C940000F1
:10025000611102C0289801C0289A9BB19F70282F75
:10026000207F922B9BB945E04A95F1F70000299A2F
:1002700095E09A95F1F70000299840EF4A95F1F73B
:100280002BB1922F9F7040E1849F90011124292B64
:100290002BB995E09A95F1F70000299A45E04A9527
:1002A000F1F70000299890EF9A95F1F7611108C0D5
:1002B000843030F48FE39FE10197F1F700C0000034
:1002C0000895289829982FEF89EF90E021508040D9
:1002D0009040E1F700C000008BB18F7080638BB954
:1002E00025E02A95F1F70000299A85E08A95F1F733
:1002F0000000299890EF9A95F1F78FE19EE401971D
:10030000F1F700C0000095E09A95F1F70000299AF6
:1003100025E02A95F1F70000299880EF8A95F1F7FA
:100320008FE193E00197F1F700C0000095E09A9506
:10033000F1F70000299A25E02A95F1F700002998A5
:1003400080EF8A95F1F78BB18F7080628BB995E061
:100350009A95F1F70000299A25E02A95F1F7000017
:10036000299880EF8A95F1F760E088E20E942801E1
:1003700060E088E00E94280160E081E00E9428019E
:1003800060E08CE00E94280160E080E80E94280183
:100390000895CF93DF93EC01FC018491882351F001
:1003A000FE01849161E00E9428012196FE01849162
:1003B0008111F6CFDF91CF910895AC01FB01DB01F4
:1003C0009B012B5F3F4F80E38D93A217B307E1F7AB
:1003D0009A01ADECBCEC0E94CC069695879596955B
:1003E0008795969587959C01220F331F880F991F3B
:1003F000880F991F880F991F820F931F9A01281B3E
:10040000390BC901805D81939A010E94CC06AC0131
:1004100056954795569547955695479541155105DB
:10042000B9F6089560E080E80E9428018DED90E023
:100430000E94C90180910901813019F0823081F058
:100440001DC060E080EC0E9428018BEF90E00E94CC
:10045000C90181E08093040183E080930B010EC009
:1004600060E080EC0E94280184E191E00E94C901D3
:1004700082E08093040185E080930B0130991DC0D8
:1004800080910901823069F481E0809309012FEFA6
:1004900085EA9EE0215080409040E1F700C00000D6
:1004A0000CC08F5F809309012FEF85EA9EE02150F9
:1004B00080409040E1F700C0000031991DC080915C
:1004C0000901813069F482E0809309012FEF85EA08
:1004D0009EE0215080409040E1F700C000000CC039
:1004E0008150809309012FEF85EA9EE021508040E2
:1004F0009040E1F700C00000329910C083E0809383
:100500000A012FEF85EA9EE0215080409040E1F7FC
:1005100000C0000060E081E00E942801089560E0D2
:1005200080E80E94280183E791E00E94C901809140
:100530000801813019F0823069F017C060E080EC6A
:100540000E94280188E991E00E94C90181E080931E
:1005500003010BC060E080EC0E9428018BE891E071
:100560000E94C90182E08093030130991DC08091EF
:100570000801823069F481E0809308012FEF85EA59
:100580009EE0215080409040E1F700C000000CC088
:100590008F5F809308012FEF85EA9EE02150804015
:1005A0009040E1F700C0000031991DC08091080122
:1005B000813069F482E0809308012FEF85EA9EE0A4
:1005C000215080409040E1F700C000000CC08150F5
:1005D000809308012FEF85EA9EE0215080409040F3
:1005E000E1F700C00000329910C084E080930A0156
:1005F0002FEF85EA9EE0215080409040E1F700C057
:10060000000060E081E00E942801089560E080E839
:100610000E9428018CE591E00E94C90180910701A8
:10062000813019F0823069F017C060E080EC0E94E0
:10063000280188E991E00E94C90181E080930201CC
:100640000BC060E080EC0E9428018BE891E00E94E2
:10065000C90182E08093020130991DC08091070199
:10066000823069F481E0809307012FEF85EA9EE0F4
:10067000215080409040E1F700C000000CC08F5F27
:10068000809307012FEF85EA9EE021508040904043
:10069000E1F700C0000031991DC080910701813051
:1006A00069F482E0809307012FEF85EA9EE02150F4
:1006B00080409040E1F700C000000CC08150809362
:1006C00007012FEF85EA9EE0215080409040E1F73E
:1006D00000C00000329910C085E080930A012FEF1E
:1006E00085EA9EE0215080409040E1F700C0000084
:1006F00060E081E00E942801089560E080E80E94A7
:10070000280181E491E00E94C901809106018130B5
:1007100019F0823069F017C060E080EC0E94280177
:1007200088E991E00E94C90181E0809301010BC03A
:1007300060E080EC0E9428018BE891E00E94C901F2
:1007400082E08093010130991DC0809106018230C2
:1007500069F481E0809306012FEF85EA9EE0215045
:1007600080409040E1F700C000000CC08F5F809394
:1007700006012FEF85EA9EE0215080409040E1F78E
:1007800000C0000031991DC080910601813069F4DC
:1007900082E0809306012FEF85EA9EE021508040A1
:1007A0009040E1F700C000000CC08150809306012A
:1007B0002FEF85EA9EE0215080409040E1F700C095
:1007C0000000329910C086E080930A012FEF85EA7D
:1007D0009EE0215080409040E1F700C0000060E0C2
:1007E00081E00E942801089560E080E80E942801CD
:1007F00089E291E00E94C90180910501813019F0E0
:10080000823069F017C060E080EC0E94280188E91E
:1008100091E00E94C90181E0809300010BC060E07B
:1008200080EC0E9428018BE891E00E94C90182E0DF
:100830008093000130991DC080910501823069F4D8
:1008400081E0809305012FEF85EA9EE021508040F2
:100850009040E1F700C000000CC08F5F809305015D
:100860002FEF85EA9EE0215080409040E1F700C0E4
:10087000000031991DC080910501813069F482E04A
:10088000809305012FEF85EA9EE021508040904043
:10089000E1F700C000000CC08150809305012FEFEC
:1008A00085EA9EE0215080409040E1F700C00000C2
:1008B000329910C087E080930A012FEF85EA9EE00D
:1008C000215080409040E1F700C0000060E081E0EE
:1008D0000E942801089560E080E80E94280185EBCD
:1008E00091E00E94C901339926C060E080E80E942F
:1008F000280187ED91E00E94C9012FEF89E698E178
:10090000215080409040E1F700C0000060E080E8A6
:100910000E9428018EEA90E00E94C90188E080933D
:100920000A0180910B0124E6829FC001112490935B
:100930000D0180930C01089580910C0190910D019F
:10094000892BA9F489E080930A0180910B0124E6A8
:10095000829FC001112490930D0180930C0160E0EF
:1009600080EC0E94280188E092E00E94C90108956D
:10097000809103018130F1F42D9A80910C019091C6
:100980000D01892B99F52D988AE080930A018091B9
:100990000B0124E6829FC001112490930D018093E6
:1009A0000C0160E080EC0E94280180E092E00E944F
:1009B000C90108952D9880910C0190910D01892B0A
:1009C000A9F48AE080930A0180910B0124E6829FBA
:1009D000C001112490930D0180930C0160E080EC24
:1009E0000E94280180E092E00E94C9010895809150
:1009F00002018130F1F42C9A80910C0190910D014B
:100A0000892B99F52C988BE080930A0180910B013A
:100A100024E6829FC001112490930D0180930C0164
:100A200060E080EC0E94280183EF91E00E94C90100
:100A300008952C9880910C0190910D01892BA9F4B7
:100A40008BE080930A0180910B0124E6829FC00114
:100A5000112490930D0180930C0160E080EC0E94C2
:100A6000280183EF91E00E94C9010895809101015E
:100A70008130F1F42B9A80910C0190910D01892B1A
:100A800099F52B988CE080930A0180910B0124E664
:100A9000829FC001112490930D0180930C0160E0AE
:100AA00080EC0E94280189EE91E00E94C90108951E
:100AB0002B9880910C0190910D01892BA9F48CE069
:100AC00080930A0180910B0124E6829FC0011124CA
:100AD00090930D0180930C0160E080EC0E9428014E
:100AE00089EE91E00E94C901089580910001813052
:100AF000D1F42A9A80910C0190910D01892B59F51E
:100B00002A988DE080930A0180910B0124E6829F50
:100B1000C001112490930D0180930C0160E081E0ED
:100B20000E94280108952A9880910C0190910D014E
:100B3000892B89F48DE080930A0180910B0124E6D2
:100B4000829FC001112490930D0180930C0160E0FD
:100B500081E00E942801089560E080E80E94280159
:100B600084EA91E00E94C90133992FC060E080E8D7
:100B70000E94280186EC91E00E94C9012FEF89E6CE
:100B800098E1215080409040E1F700C0000060E013
:100B900080E80E94280187E990E00E94C9012FEFB8
:100BA00089E698E1215080409040E1F700C00000C4
:100BB0008EE080930A0180910B0124E6829FC001A0
:100BC000112490930D0180930C0108952D982C9879
:100BD0002B982A9860E080E80E94280184E890E041
:100BE0000E94C90180910C0190910D01892B19F48B
:100BF00081E080930A01089585E085BD81E08093BE
:100C00006E0084E686BD78948093130108951F9248
:100C10000F920FB60F9211242F933F934F935F9330
:100C20006F937F938F939F93AF93BF93CF93DF93F4
:100C3000EF93FF9384E686BD80910C0190910D01A6
:100C4000009771F1019790930D0180930C018091B1
:100C50000A018950843020F560E08DE80E94280167
:100C600020910C0130910D013695279536952795E9
:100C7000ABE7B4E10E94CC066EE071E096958795F3
:100C80000E94DD01CEE0D1E061E08A810E9428016E
:100C900061E089810E94280161E088810E94280129
:100CA000FF91EF91DF91CF91BF91AF919F918F9184
:100CB0007F916F915F914F913F912F910F900FBE58
:100CC0000F901F9018958FEF84B993EC95B98AB95E
:100CD0008BB91092C10017B888B90E94610160E019
:100CE00081E00E9428010E94FC0586E990E0909333
:100CF0000D0180930C0180910A0190E0FC01319775
:100D0000EE30F105D8F7EC5CFF4F0C94C60660E0BE
:100D100080E80E94280182EC90E00E94C901809145
:100D20000C0190910D01892B31F780910A018F5FA1
:100D300080930A0160E081E00E942801DCCF0E94DC
:100D40001202D9CF0E948F02D6CF0E940603D3CFC2
:100D50000E947D03D0CF0E94F403CDCF0E946B048C
:100D6000CACF0E949C04C7CF0E94B804C4CF0E947F
:100D7000F704C1CF0E943605BECF0E947505BBCFD8
:100D80000E94AC05B8CF0E94E605B5CFEE0FFF1F5D
:100D90000590F491E02D0994A29FB001B39FC0018A
:100DA000A39F700D811D1124911DB29F700D811D97
:0A0DB0001124911D0895F894FFCF5F
:0C0DBA000101010101010101010101031F
:00000001FF
